{
  "contractName": "Exc",
  "abi": [
    {
      "constant": true,
      "inputs": [
        {
          "name": "",
          "type": "bytes32"
        },
        {
          "name": "",
          "type": "uint256"
        },
        {
          "name": "",
          "type": "uint256"
        }
      ],
      "name": "orderBook",
      "outputs": [
        {
          "name": "id",
          "type": "uint256"
        },
        {
          "name": "trader",
          "type": "address"
        },
        {
          "name": "side",
          "type": "uint8"
        },
        {
          "name": "ticker",
          "type": "bytes32"
        },
        {
          "name": "amount",
          "type": "uint256"
        },
        {
          "name": "filled",
          "type": "uint256"
        },
        {
          "name": "price",
          "type": "uint256"
        },
        {
          "name": "date",
          "type": "uint256"
        }
      ],
      "payable": false,
      "stateMutability": "view",
      "type": "function"
    },
    {
      "constant": true,
      "inputs": [],
      "name": "nextOrderId",
      "outputs": [
        {
          "name": "",
          "type": "uint256"
        }
      ],
      "payable": false,
      "stateMutability": "view",
      "type": "function"
    },
    {
      "constant": true,
      "inputs": [
        {
          "name": "",
          "type": "address"
        },
        {
          "name": "",
          "type": "bytes32"
        }
      ],
      "name": "traderBalances",
      "outputs": [
        {
          "name": "",
          "type": "uint256"
        }
      ],
      "payable": false,
      "stateMutability": "view",
      "type": "function"
    },
    {
      "constant": true,
      "inputs": [],
      "name": "nextTradeId",
      "outputs": [
        {
          "name": "",
          "type": "uint256"
        }
      ],
      "payable": false,
      "stateMutability": "view",
      "type": "function"
    },
    {
      "constant": true,
      "inputs": [
        {
          "name": "",
          "type": "bytes32"
        }
      ],
      "name": "tokens",
      "outputs": [
        {
          "name": "ticker",
          "type": "bytes32"
        },
        {
          "name": "tokenAddress",
          "type": "address"
        }
      ],
      "payable": false,
      "stateMutability": "view",
      "type": "function"
    },
    {
      "constant": true,
      "inputs": [
        {
          "name": "",
          "type": "uint256"
        }
      ],
      "name": "tokenList",
      "outputs": [
        {
          "name": "",
          "type": "bytes32"
        }
      ],
      "payable": false,
      "stateMutability": "view",
      "type": "function"
    },
    {
      "constant": true,
      "inputs": [],
      "name": "admin",
      "outputs": [
        {
          "name": "",
          "type": "address"
        }
      ],
      "payable": false,
      "stateMutability": "view",
      "type": "function"
    },
    {
      "inputs": [],
      "payable": false,
      "stateMutability": "nonpayable",
      "type": "constructor"
    },
    {
      "anonymous": false,
      "inputs": [
        {
          "indexed": false,
          "name": "tradeId",
          "type": "uint256"
        },
        {
          "indexed": false,
          "name": "orderId",
          "type": "uint256"
        },
        {
          "indexed": true,
          "name": "ticker",
          "type": "bytes32"
        },
        {
          "indexed": true,
          "name": "trader1",
          "type": "address"
        },
        {
          "indexed": true,
          "name": "trader2",
          "type": "address"
        },
        {
          "indexed": false,
          "name": "amount",
          "type": "uint256"
        },
        {
          "indexed": false,
          "name": "price",
          "type": "uint256"
        },
        {
          "indexed": false,
          "name": "date",
          "type": "uint256"
        }
      ],
      "name": "NewTrade",
      "type": "event"
    },
    {
      "constant": true,
      "inputs": [
        {
          "name": "ticker",
          "type": "bytes32"
        },
        {
          "name": "side",
          "type": "uint8"
        }
      ],
      "name": "getOrders",
      "outputs": [
        {
          "components": [
            {
              "name": "id",
              "type": "uint256"
            },
            {
              "name": "trader",
              "type": "address"
            },
            {
              "name": "side",
              "type": "uint8"
            },
            {
              "name": "ticker",
              "type": "bytes32"
            },
            {
              "name": "amount",
              "type": "uint256"
            },
            {
              "name": "filled",
              "type": "uint256"
            },
            {
              "name": "price",
              "type": "uint256"
            },
            {
              "name": "date",
              "type": "uint256"
            }
          ],
          "name": "",
          "type": "tuple[]"
        }
      ],
      "payable": false,
      "stateMutability": "view",
      "type": "function"
    },
    {
      "constant": true,
      "inputs": [],
      "name": "getTokens",
      "outputs": [
        {
          "components": [
            {
              "name": "ticker",
              "type": "bytes32"
            },
            {
              "name": "tokenAddress",
              "type": "address"
            }
          ],
          "name": "",
          "type": "tuple[]"
        }
      ],
      "payable": false,
      "stateMutability": "view",
      "type": "function"
    },
    {
      "constant": false,
      "inputs": [
        {
          "name": "ticker",
          "type": "bytes32"
        },
        {
          "name": "tokenAddress",
          "type": "address"
        }
      ],
      "name": "addToken",
      "outputs": [],
      "payable": false,
      "stateMutability": "nonpayable",
      "type": "function"
    },
    {
      "constant": false,
      "inputs": [
        {
          "name": "amount",
          "type": "uint256"
        },
        {
          "name": "ticker",
          "type": "bytes32"
        }
      ],
      "name": "deposit",
      "outputs": [],
      "payable": false,
      "stateMutability": "nonpayable",
      "type": "function"
    },
    {
      "constant": false,
      "inputs": [
        {
          "name": "amount",
          "type": "uint256"
        },
        {
          "name": "ticker",
          "type": "bytes32"
        }
      ],
      "name": "withdraw",
      "outputs": [],
      "payable": false,
      "stateMutability": "nonpayable",
      "type": "function"
    },
    {
      "constant": false,
      "inputs": [
        {
          "name": "ticker",
          "type": "bytes32"
        },
        {
          "name": "amount",
          "type": "uint256"
        },
        {
          "name": "price",
          "type": "uint256"
        },
        {
          "name": "side",
          "type": "uint8"
        }
      ],
      "name": "makeLimitOrder",
      "outputs": [],
      "payable": false,
      "stateMutability": "nonpayable",
      "type": "function"
    },
    {
      "constant": false,
      "inputs": [
        {
          "name": "id",
          "type": "uint256"
        },
        {
          "name": "ticker",
          "type": "bytes32"
        },
        {
          "name": "side",
          "type": "uint8"
        }
      ],
      "name": "deleteLimitOrder",
      "outputs": [
        {
          "name": "",
          "type": "bool"
        }
      ],
      "payable": false,
      "stateMutability": "nonpayable",
      "type": "function"
    },
    {
      "constant": false,
      "inputs": [
        {
          "name": "ticker",
          "type": "bytes32"
        },
        {
          "name": "amount",
          "type": "uint256"
        },
        {
          "name": "side",
          "type": "uint8"
        }
      ],
      "name": "makeMarketOrder",
      "outputs": [],
      "payable": false,
      "stateMutability": "nonpayable",
      "type": "function"
    }
  ],
  "bytecode": "0x608060405234801561001057600080fd5b5033600460006101000a81548173ffffffffffffffffffffffffffffffffffffffff021916908373ffffffffffffffffffffffffffffffffffffffff1602179055506137c7806100616000396000f3fe608060405234801561001057600080fd5b5060043610610112576000357c0100000000000000000000000000000000000000000000000000000000900480639776aacf116100b4578063be2a296b11610083578063be2a296b146102d1578063c9630cb0146102ed578063da28bd5c14610309578063f851a4401461032557610112565b80639776aacf1461024b5780639ead722214610267578063a8d2021a14610297578063aa6ca808146102b357610112565b806346e9658b116100f057806346e9658b1461019c57806372ce957e146101cc578063813ad083146101fc578063904194a31461021a57610112565b80630bb431b61461011757806317aa080c1461014e5780632a58b3301461017e575b600080fd5b610131600480360361012c9190810190612d35565b610343565b604051610145989796959493929190613528565b60405180910390f35b61016860048036036101639190810190612e4c565b6103e1565b604051610175919061338c565b60405180910390f35b61018661075e565b604051610193919061350d565b60405180910390f35b6101b660048036036101b19190810190612caa565b610764565b6040516101c39190613348565b60405180910390f35b6101e660048036036101e19190810190612be0565b6108b4565b6040516101f3919061350d565b60405180910390f35b6102046108d9565b604051610211919061350d565b60405180910390f35b610234600480360361022f9190810190612c45565b6108df565b6040516102429291906133c2565b60405180910390f35b61026560048036036102609190810190612c6e565b610923565b005b610281600480360361027c9190810190612de7565b6109e4565b60405161028e91906133a7565b60405180910390f35b6102b160048036036102ac9190810190612e10565b610a07565b005b6102bb610cdf565b6040516102c8919061336a565b60405180910390f35b6102eb60048036036102e69190810190612ce6565b610e0e565b005b61030760048036036103029190810190612e10565b611efc565b005b610323600480360361031e9190810190612d84565b612141565b005b61032d612947565b60405161033a91906132cd565b60405180910390f35b60036020528260005260406000206020528160005260406000208181548110151561036a57fe5b906000526020600020906007020160009250925050508060000154908060010160009054906101000a900473ffffffffffffffffffffffffffffffffffffffff16908060010160149054906101000a900460ff16908060020154908060030154908060040154908060050154908060060154905088565b600082600073ffffffffffffffffffffffffffffffffffffffff1660008083815260200190815260200160002060010160009054906101000a900473ffffffffffffffffffffffffffffffffffffffff1673ffffffffffffffffffffffffffffffffffffffff161415151561048b576040517f08c379a0000000000000000000000000000000000000000000000000000000008152600401610482906134ed565b60405180910390fd5b60006003600086815260200190815260200160002060008560018111156104ae57fe5b8152602001908152602001600020905060008090505b818054905081101561074f578682828154811015156104df57fe5b90600052602060002090600702016000015414801561056857503373ffffffffffffffffffffffffffffffffffffffff16828281548110151561051e57fe5b906000526020600020906007020160010160009054906101000a900473ffffffffffffffffffffffffffffffffffffffff1673ffffffffffffffffffffffffffffffffffffffff16145b156107425760008190505b60018380549050038110156106a657826001820181548110151561059357fe5b906000526020600020906007020183828154811015156105af57fe5b9060005260206000209060070201600082015481600001556001820160009054906101000a900473ffffffffffffffffffffffffffffffffffffffff168160010160006101000a81548173ffffffffffffffffffffffffffffffffffffffff021916908373ffffffffffffffffffffffffffffffffffffffff1602179055506001820160149054906101000a900460ff168160010160146101000a81548160ff0219169083600181111561065f57fe5b021790555060028201548160020155600382015481600301556004820154816004015560058201548160050155600682015481600601559050508080600101915050610573565b508180548015156106b357fe5b60019003818190600052602060002090600702016000808201600090556001820160006101000a81549073ffffffffffffffffffffffffffffffffffffffff02191690556001820160146101000a81549060ff02191690556002820160009055600382016000905560048201600090556005820160009055600682016000905550509055600193505050610756565b80806001019150506104c4565b6000935050505b509392505050565b60055481565b606060036000848152602001908152602001600020600083600181111561078757fe5b8152602001908152602001600020805480602002602001604051908101604052809291908181526020016000905b828210156108a857838290600052602060002090600702016101006040519081016040529081600082015481526020016001820160009054906101000a900473ffffffffffffffffffffffffffffffffffffffff1673ffffffffffffffffffffffffffffffffffffffff1673ffffffffffffffffffffffffffffffffffffffff1681526020016001820160149054906101000a900460ff16600181111561085857fe5b600181111561086357fe5b815260200160028201548152602001600382015481526020016004820154815260200160058201548152602001600682015481525050815260200190600101906107b5565b50505050905092915050565b6002602052816000526040600020602052806000526040600020600091509150505481565b60065481565b60006020528060005260406000206000915090508060000154908060010160009054906101000a900473ffffffffffffffffffffffffffffffffffffffff16905082565b60408051908101604052808381526020018273ffffffffffffffffffffffffffffffffffffffff168152506000808481526020019081526020016000206000820151816000015560208201518160010160006101000a81548173ffffffffffffffffffffffffffffffffffffffff021916908373ffffffffffffffffffffffffffffffffffffffff16021790555090505060018290806001815401808255809150509060018203906000526020600020016000909192909190915055505050565b6001818154811015156109f357fe5b906000526020600020016000915090505481565b80600073ffffffffffffffffffffffffffffffffffffffff1660008083815260200190815260200160002060010160009054906101000a900473ffffffffffffffffffffffffffffffffffffffff1673ffffffffffffffffffffffffffffffffffffffff1614151515610aaf576040517f08c379a0000000000000000000000000000000000000000000000000000000008152600401610aa6906134ed565b60405180910390fd5b82600260003373ffffffffffffffffffffffffffffffffffffffff1673ffffffffffffffffffffffffffffffffffffffff16815260200190815260200160002060008481526020019081526020016000205410151515610b44576040517f08c379a0000000000000000000000000000000000000000000000000000000008152600401610b3b9061344d565b60405180910390fd5b610ba783600260003373ffffffffffffffffffffffffffffffffffffffff1673ffffffffffffffffffffffffffffffffffffffff16815260200190815260200160002060008581526020019081526020016000205461296d90919063ffffffff16565b600260003373ffffffffffffffffffffffffffffffffffffffff1673ffffffffffffffffffffffffffffffffffffffff16815260200190815260200160002060008481526020019081526020016000208190555060008083815260200190815260200160002060010160009054906101000a900473ffffffffffffffffffffffffffffffffffffffff1673ffffffffffffffffffffffffffffffffffffffff1663a9059cbb33856040518363ffffffff167c0100000000000000000000000000000000000000000000000000000000028152600401610c8792919061331f565b602060405180830381600087803b158015610ca157600080fd5b505af1158015610cb5573d6000803e3d6000fd5b505050506040513d601f19601f82011682018060405250610cd99190810190612c1c565b50505050565b606080600180549050604051908082528060200260200182016040528015610d2157816020015b610d0e612adf565b815260200190600190039081610d065790505b50905060008090505b600180549050811015610e06576040805190810160405280600080600185815481101515610d5457fe5b90600052602060002001548152602001908152602001600020600001548152602001600080600185815481101515610d8857fe5b9060005260206000200154815260200190815260200160002060010160009054906101000a900473ffffffffffffffffffffffffffffffffffffffff1673ffffffffffffffffffffffffffffffffffffffff168152508282815181101515610dec57fe5b906020019060200201819052508080600101915050610d2a565b508091505090565b82600073ffffffffffffffffffffffffffffffffffffffff1660008083815260200190815260200160002060010160009054906101000a900473ffffffffffffffffffffffffffffffffffffffff1673ffffffffffffffffffffffffffffffffffffffff1614151515610eb6576040517f08c379a0000000000000000000000000000000000000000000000000000000008152600401610ead906134ed565b60405180910390fd5b837f50494e00000000000000000000000000000000000000000000000000000000008114151515610f1c576040517f08c379a0000000000000000000000000000000000000000000000000000000008152600401610f13906134cd565b60405180910390fd5b600180811115610f2857fe5b836001811115610f3457fe5b1415610fd05783600260003373ffffffffffffffffffffffffffffffffffffffff1673ffffffffffffffffffffffffffffffffffffffff16815260200190815260200160002060008781526020019081526020016000205410151515610fcf576040517f08c379a0000000000000000000000000000000000000000000000000000000008152600401610fc6906134ad565b60405180910390fd5b5b6000600360008781526020019081526020016000206000806001811115610ff357fe5b866001811115610fff57fe5b1461100b57600061100e565b60015b600181111561101957fe5b815260200190815260200160002090506000808690505b8280549050821080156110435750600081115b15611cc157600061109b848481548110151561105b57fe5b906000526020600020906007020160040154858581548110151561107b57fe5b90600052602060002090600702016003015461296d90919063ffffffff16565b905060008183116110ac57826110ae565b815b90506110c3818461296d90919063ffffffff16565b92506110f78186868154811015156110d757fe5b9060005260206000209060070201600401546129b790919063ffffffff16565b858581548110151561110557fe5b9060005260206000209060070201600401819055503373ffffffffffffffffffffffffffffffffffffffff16858581548110151561113f57fe5b906000526020600020906007020160010160009054906101000a900473ffffffffffffffffffffffffffffffffffffffff1673ffffffffffffffffffffffffffffffffffffffff168b7fdb0c486e680ba8026643e6a85f8d157b5e7bcd4b32b54d564542570a9eb2041660065489898154811015156111ba57fe5b906000526020600020906007020160000154868b8b8154811015156111db57fe5b906000526020600020906007020160050154426040516111ff9594939291906135a6565b60405180910390a460018081111561121357fe5b88600181111561121f57fe5b14156116e05761128881600260003373ffffffffffffffffffffffffffffffffffffffff1673ffffffffffffffffffffffffffffffffffffffff16815260200190815260200160002060008d81526020019081526020016000205461296d90919063ffffffff16565b600260003373ffffffffffffffffffffffffffffffffffffffff1673ffffffffffffffffffffffffffffffffffffffff16815260200190815260200160002060008c81526020019081526020016000208190555061139061131186868154811015156112f057fe5b90600052602060002090600702016005015483612a0e90919063ffffffff16565b600260003373ffffffffffffffffffffffffffffffffffffffff1673ffffffffffffffffffffffffffffffffffffffff16815260200190815260200160002060007f50494e00000000000000000000000000000000000000000000000000000000008152602001908152602001600020546129b790919063ffffffff16565b600260003373ffffffffffffffffffffffffffffffffffffffff1673ffffffffffffffffffffffffffffffffffffffff16815260200190815260200160002060007f50494e00000000000000000000000000000000000000000000000000000000008152602001908152602001600020819055506114a68160026000888881548110151561141a57fe5b906000526020600020906007020160010160009054906101000a900473ffffffffffffffffffffffffffffffffffffffff1673ffffffffffffffffffffffffffffffffffffffff1673ffffffffffffffffffffffffffffffffffffffff16815260200190815260200160002060008d8152602001908152602001600020546129b790919063ffffffff16565b6002600087878154811015156114b857fe5b906000526020600020906007020160010160009054906101000a900473ffffffffffffffffffffffffffffffffffffffff1673ffffffffffffffffffffffffffffffffffffffff1673ffffffffffffffffffffffffffffffffffffffff16815260200190815260200160002060008c81526020019081526020016000208190555061162c61156e868681548110151561154d57fe5b90600052602060002090600702016005015483612a0e90919063ffffffff16565b60026000888881548110151561158057fe5b906000526020600020906007020160010160009054906101000a900473ffffffffffffffffffffffffffffffffffffffff1673ffffffffffffffffffffffffffffffffffffffff1673ffffffffffffffffffffffffffffffffffffffff16815260200190815260200160002060007f50494e000000000000000000000000000000000000000000000000000000000081526020019081526020016000205461296d90919063ffffffff16565b60026000878781548110151561163e57fe5b906000526020600020906007020160010160009054906101000a900473ffffffffffffffffffffffffffffffffffffffff1673ffffffffffffffffffffffffffffffffffffffff1673ffffffffffffffffffffffffffffffffffffffff16815260200190815260200160002060007f50494e00000000000000000000000000000000000000000000000000000000008152602001908152602001600020819055505b600060018111156116ed57fe5b8860018111156116f957fe5b1415611ca057611731858581548110151561171057fe5b90600052602060002090600702016005015482612a0e90919063ffffffff16565b600260003373ffffffffffffffffffffffffffffffffffffffff1673ffffffffffffffffffffffffffffffffffffffff16815260200190815260200160002060007f50494e0000000000000000000000000000000000000000000000000000000000815260200190815260200160002054101515156117e5576040517f08c379a00000000000000000000000000000000000000000000000000000000081526004016117dc9061340d565b60405180910390fd5b61184881600260003373ffffffffffffffffffffffffffffffffffffffff1673ffffffffffffffffffffffffffffffffffffffff16815260200190815260200160002060008d8152602001908152602001600020546129b790919063ffffffff16565b600260003373ffffffffffffffffffffffffffffffffffffffff1673ffffffffffffffffffffffffffffffffffffffff16815260200190815260200160002060008c8152602001908152602001600020819055506119506118d186868154811015156118b057fe5b90600052602060002090600702016005015483612a0e90919063ffffffff16565b600260003373ffffffffffffffffffffffffffffffffffffffff1673ffffffffffffffffffffffffffffffffffffffff16815260200190815260200160002060007f50494e000000000000000000000000000000000000000000000000000000000081526020019081526020016000205461296d90919063ffffffff16565b600260003373ffffffffffffffffffffffffffffffffffffffff1673ffffffffffffffffffffffffffffffffffffffff16815260200190815260200160002060007f50494e0000000000000000000000000000000000000000000000000000000000815260200190815260200160002081905550611a66816002600088888154811015156119da57fe5b906000526020600020906007020160010160009054906101000a900473ffffffffffffffffffffffffffffffffffffffff1673ffffffffffffffffffffffffffffffffffffffff1673ffffffffffffffffffffffffffffffffffffffff16815260200190815260200160002060008d81526020019081526020016000205461296d90919063ffffffff16565b600260008787815481101515611a7857fe5b906000526020600020906007020160010160009054906101000a900473ffffffffffffffffffffffffffffffffffffffff1673ffffffffffffffffffffffffffffffffffffffff1673ffffffffffffffffffffffffffffffffffffffff16815260200190815260200160002060008c815260200190815260200160002081905550611bec611b2e8686815481101515611b0d57fe5b90600052602060002090600702016005015483612a0e90919063ffffffff16565b600260008888815481101515611b4057fe5b906000526020600020906007020160010160009054906101000a900473ffffffffffffffffffffffffffffffffffffffff1673ffffffffffffffffffffffffffffffffffffffff1673ffffffffffffffffffffffffffffffffffffffff16815260200190815260200160002060007f50494e00000000000000000000000000000000000000000000000000000000008152602001908152602001600020546129b790919063ffffffff16565b600260008787815481101515611bfe57fe5b906000526020600020906007020160010160009054906101000a900473ffffffffffffffffffffffffffffffffffffffff1673ffffffffffffffffffffffffffffffffffffffff1673ffffffffffffffffffffffffffffffffffffffff16815260200190815260200160002060007f50494e00000000000000000000000000000000000000000000000000000000008152602001908152602001600020819055505b60066000815480929190600101919050555083806001019450505050611030565b600091505b828054905082108015611d1657508282815481101515611ce257fe5b9060005260206000209060070201600301548383815481101515611d0257fe5b906000526020600020906007020160040154145b15611ef25760008290505b6001848054905003811015611e54578360018201815481101515611d4157fe5b90600052602060002090600702018482815481101515611d5d57fe5b9060005260206000209060070201600082015481600001556001820160009054906101000a900473ffffffffffffffffffffffffffffffffffffffff168160010160006101000a81548173ffffffffffffffffffffffffffffffffffffffff021916908373ffffffffffffffffffffffffffffffffffffffff1602179055506001820160149054906101000a900460ff168160010160146101000a81548160ff02191690836001811115611e0d57fe5b021790555060028201548160020155600382015481600301556004820154816004015560058201548160050155600682015481600601559050508080600101915050611d21565b50828054801515611e6157fe5b60019003818190600052602060002090600702016000808201600090556001820160006101000a81549073ffffffffffffffffffffffffffffffffffffffff02191690556001820160146101000a81549060ff021916905560028201600090556003820160009055600482016000905560058201600090556006820160009055505090558180600101925050611cc6565b5050505050505050565b80600073ffffffffffffffffffffffffffffffffffffffff1660008083815260200190815260200160002060010160009054906101000a900473ffffffffffffffffffffffffffffffffffffffff1673ffffffffffffffffffffffffffffffffffffffff1614151515611fa4576040517f08c379a0000000000000000000000000000000000000000000000000000000008152600401611f9b906134ed565b60405180910390fd5b60008083815260200190815260200160002060010160009054906101000a900473ffffffffffffffffffffffffffffffffffffffff1673ffffffffffffffffffffffffffffffffffffffff166323b872dd3330866040518463ffffffff167c0100000000000000000000000000000000000000000000000000000000028152600401612032939291906132e8565b602060405180830381600087803b15801561204c57600080fd5b505af1158015612060573d6000803e3d6000fd5b505050506040513d601f19601f820116820180604052506120849190810190612c1c565b506120e883600260003373ffffffffffffffffffffffffffffffffffffffff1673ffffffffffffffffffffffffffffffffffffffff1681526020019081526020016000206000858152602001908152602001600020546129b790919063ffffffff16565b600260003373ffffffffffffffffffffffffffffffffffffffff1673ffffffffffffffffffffffffffffffffffffffff168152602001908152602001600020600084815260200190815260200160002081905550505050565b83600073ffffffffffffffffffffffffffffffffffffffff1660008083815260200190815260200160002060010160009054906101000a900473ffffffffffffffffffffffffffffffffffffffff1673ffffffffffffffffffffffffffffffffffffffff16141515156121e9576040517f08c379a00000000000000000000000000000000000000000000000000000000081526004016121e0906134ed565b60405180910390fd5b847f50494e0000000000000000000000000000000000000000000000000000000000811415151561224f576040517f08c379a0000000000000000000000000000000000000000000000000000000008152600401612246906134cd565b60405180910390fd5b60018081111561225b57fe5b83600181111561226757fe5b14156123075784600260003373ffffffffffffffffffffffffffffffffffffffff1673ffffffffffffffffffffffffffffffffffffffff16815260200190815260200160002060008881526020019081526020016000205410151515612302576040517f08c379a00000000000000000000000000000000000000000000000000000000081526004016122f9906134ad565b60405180910390fd5b6123cf565b61231a8486612a0e90919063ffffffff16565b600260003373ffffffffffffffffffffffffffffffffffffffff1673ffffffffffffffffffffffffffffffffffffffff16815260200190815260200160002060007f50494e0000000000000000000000000000000000000000000000000000000000815260200190815260200160002054101515156123ce576040517f08c379a00000000000000000000000000000000000000000000000000000000081526004016123c59061346d565b60405180910390fd5b5b60006003600088815260200190815260200160002060008560018111156123f257fe5b81526020019081526020016000209050806101006040519081016040528060055481526020013373ffffffffffffffffffffffffffffffffffffffff16815260200186600181111561244057fe5b81526020018981526020018881526020016000815260200187815260200142815250908060018154018082558091505090600182039060005260206000209060070201600090919290919091506000820151816000015560208201518160010160006101000a81548173ffffffffffffffffffffffffffffffffffffffff021916908373ffffffffffffffffffffffffffffffffffffffff16021790555060408201518160010160146101000a81548160ff0219169083600181111561250257fe5b0217905550606082015181600201556080820151816003015560a0820151816004015560c0820151816005015560e08201518160060155505050600080828054905011612550576000612559565b60018280549050035b90505b600081111561292b576000600181111561257257fe5b85600181111561257e57fe5b1480156125cb5750818181548110151561259457fe5b90600052602060002090600702016005015482600183038154811015156125b757fe5b906000526020600020906007020160050154115b156125d55761292b565b6001808111156125e157fe5b8560018111156125ed57fe5b14801561263a5750818181548110151561260357fe5b906000526020600020906007020160050154826001830381548110151561262657fe5b906000526020600020906007020160050154105b156126445761292b565b61264c612b12565b826001830381548110151561265d57fe5b90600052602060002090600702016101006040519081016040529081600082015481526020016001820160009054906101000a900473ffffffffffffffffffffffffffffffffffffffff1673ffffffffffffffffffffffffffffffffffffffff1673ffffffffffffffffffffffffffffffffffffffff1681526020016001820160149054906101000a900460ff1660018111156126f657fe5b600181111561270157fe5b8152602001600282015481526020016003820154815260200160048201548152602001600582015481526020016006820154815250509050828281548110151561274757fe5b9060005260206000209060070201836001840381548110151561276657fe5b9060005260206000209060070201600082015481600001556001820160009054906101000a900473ffffffffffffffffffffffffffffffffffffffff168160010160006101000a81548173ffffffffffffffffffffffffffffffffffffffff021916908373ffffffffffffffffffffffffffffffffffffffff1602179055506001820160149054906101000a900460ff168160010160146101000a81548160ff0219169083600181111561281657fe5b0217905550600282015481600201556003820154816003015560048201548160040155600582015481600501556006820154816006015590505080838381548110151561285f57fe5b90600052602060002090600702016000820151816000015560208201518160010160006101000a81548173ffffffffffffffffffffffffffffffffffffffff021916908373ffffffffffffffffffffffffffffffffffffffff16021790555060408201518160010160146101000a81548160ff021916908360018111156128e257fe5b0217905550606082015181600201556080820151816003015560a0820151816004015560c0820151816005015560e082015181600601559050508180600190039250505061255c565b6005600081548092919060010191905055505050505050505050565b600460009054906101000a900473ffffffffffffffffffffffffffffffffffffffff1681565b60006129af83836040805190810160405280601e81526020017f536166654d6174683a207375627472616374696f6e206f766572666c6f770000815250612a82565b905092915050565b6000808284019050838110151515612a04576040517f08c379a00000000000000000000000000000000000000000000000000000000081526004016129fb9061342d565b60405180910390fd5b8091505092915050565b600080831415612a215760009050612a7c565b60008284029050828482811515612a3457fe5b04141515612a77576040517f08c379a0000000000000000000000000000000000000000000000000000000008152600401612a6e9061348d565b60405180910390fd5b809150505b92915050565b60008383111582901515612acc576040517f08c379a0000000000000000000000000000000000000000000000000000000008152600401612ac391906133eb565b60405180910390fd5b5060008385039050809150509392505050565b604080519081016040528060008019168152602001600073ffffffffffffffffffffffffffffffffffffffff1681525090565b6101006040519081016040528060008152602001600073ffffffffffffffffffffffffffffffffffffffff16815260200160006001811115612b5057fe5b815260200160008019168152602001600081526020016000815260200160008152602001600081525090565b6000612b8882356136b6565b905092915050565b6000612b9c82516136c8565b905092915050565b6000612bb082356136d4565b905092915050565b6000612bc482356136de565b905092915050565b6000612bd882356136f7565b905092915050565b60008060408385031215612bf357600080fd5b6000612c0185828601612b7c565b9250506020612c1285828601612ba4565b9150509250929050565b600060208284031215612c2e57600080fd5b6000612c3c84828501612b90565b91505092915050565b600060208284031215612c5757600080fd5b6000612c6584828501612ba4565b91505092915050565b60008060408385031215612c8157600080fd5b6000612c8f85828601612ba4565b9250506020612ca085828601612b7c565b9150509250929050565b60008060408385031215612cbd57600080fd5b6000612ccb85828601612ba4565b9250506020612cdc85828601612bb8565b9150509250929050565b600080600060608486031215612cfb57600080fd5b6000612d0986828701612ba4565b9350506020612d1a86828701612bcc565b9250506040612d2b86828701612bb8565b9150509250925092565b600080600060608486031215612d4a57600080fd5b6000612d5886828701612ba4565b9350506020612d6986828701612bcc565b9250506040612d7a86828701612bcc565b9150509250925092565b60008060008060808587031215612d9a57600080fd5b6000612da887828801612ba4565b9450506020612db987828801612bcc565b9350506040612dca87828801612bcc565b9250506060612ddb87828801612bb8565b91505092959194509250565b600060208284031215612df957600080fd5b6000612e0784828501612bcc565b91505092915050565b60008060408385031215612e2357600080fd5b6000612e3185828601612bcc565b9250506020612e4285828601612ba4565b9150509250929050565b600080600060608486031215612e6157600080fd5b6000612e6f86828701612bcc565b9350506020612e8086828701612ba4565b9250506040612e9186828701612bb8565b9150509250925092565b612ea481613701565b82525050565b612eb38161364e565b82525050565b612ec28161364e565b82525050565b6000612ed382613613565b808452602084019350612ee5836135f9565b60005b82811015612f1857612efb8683516131de565b612f0482613634565b915061010086019550600181019050612ee8565b50849250505092915050565b6000612f2f8261361e565b808452602084019350612f4183613606565b60005b82811015612f7357612f57868351613280565b612f6082613641565b9150604086019550600181019050612f44565b50849250505092915050565b612f8881613660565b82525050565b612f978161366c565b82525050565b612fa68161366c565b82525050565b612fb581613713565b82525050565b612fc481613713565b82525050565b6000612fd582613629565b808452612fe9816020860160208601613749565b612ff28161377c565b602085010191505092915050565b6000601482527f50696e652062616c616e636520746f6f206c6f770000000000000000000000006020830152604082019050919050565b6000601b82527f536166654d6174683a206164646974696f6e206f766572666c6f7700000000006020830152604082019050919050565b6000600f82527f62616c616e636520746f6f206c6f7700000000000000000000000000000000006020830152604082019050919050565b6000601482527f70696e652062616c616e636520746f6f206c6f770000000000000000000000006020830152604082019050919050565b6000602182527f536166654d6174683a206d756c7469706c69636174696f6e206f766572666c6f60208301527f77000000000000000000000000000000000000000000000000000000000000006040830152606082019050919050565b6000601582527f746f6b656e2062616c616e636520746f6f206c6f7700000000000000000000006020830152604082019050919050565b6000601182527f63616e6e6f742074726164652050696e650000000000000000000000000000006020830152604082019050919050565b6000601982527f7468697320746f6b656e20646f6573206e6f74206578697374000000000000006020830152604082019050919050565b610100820160008201516131f560008501826132af565b5060208201516132086020850182612eaa565b50604082015161321b6040850182612fac565b50606082015161322e6060850182612f8e565b50608082015161324160808501826132af565b5060a082015161325460a08501826132af565b5060c082015161326760c08501826132af565b5060e082015161327a60e08501826132af565b50505050565b6040820160008201516132966000850182612f8e565b5060208201516132a96020850182612eaa565b50505050565b6132b8816136ac565b82525050565b6132c7816136ac565b82525050565b60006020820190506132e26000830184612eb9565b92915050565b60006060820190506132fd6000830186612e9b565b61330a6020830185612eb9565b61331760408301846132be565b949350505050565b60006040820190506133346000830185612e9b565b61334160208301846132be565b9392505050565b600060208201905081810360008301526133628184612ec8565b905092915050565b600060208201905081810360008301526133848184612f24565b905092915050565b60006020820190506133a16000830184612f7f565b92915050565b60006020820190506133bc6000830184612f9d565b92915050565b60006040820190506133d76000830185612f9d565b6133e46020830184612eb9565b9392505050565b600060208201905081810360008301526134058184612fca565b905092915050565b6000602082019050818103600083015261342681613000565b9050919050565b6000602082019050818103600083015261344681613037565b9050919050565b600060208201905081810360008301526134668161306e565b9050919050565b60006020820190508181036000830152613486816130a5565b9050919050565b600060208201905081810360008301526134a6816130dc565b9050919050565b600060208201905081810360008301526134c681613139565b9050919050565b600060208201905081810360008301526134e681613170565b9050919050565b60006020820190508181036000830152613506816131a7565b9050919050565b600060208201905061352260008301846132be565b92915050565b60006101008201905061353e600083018b6132be565b61354b602083018a612eb9565b6135586040830189612fbb565b6135656060830188612f9d565b61357260808301876132be565b61357f60a08301866132be565b61358c60c08301856132be565b61359960e08301846132be565b9998505050505050505050565b600060a0820190506135bb60008301886132be565b6135c860208301876132be565b6135d560408301866132be565b6135e260608301856132be565b6135ef60808301846132be565b9695505050505050565b6000602082019050919050565b6000602082019050919050565b600081519050919050565b600081519050919050565b600081519050919050565b6000602082019050919050565b6000602082019050919050565b60006136598261368c565b9050919050565b60008115159050919050565b6000819050919050565b600060028210151561368457fe5b819050919050565b600073ffffffffffffffffffffffffffffffffffffffff82169050919050565b6000819050919050565b60006136c18261368c565b9050919050565b60008115159050919050565b6000819050919050565b60006002821015156136ef57600080fd5b819050919050565b6000819050919050565b600061370c82613725565b9050919050565b600061371e82613676565b9050919050565b600061373082613737565b9050919050565b60006137428261368c565b9050919050565b60005b8381101561376757808201518184015260208101905061374c565b83811115613776576000848401525b50505050565b6000601f19601f830116905091905056fea265627a7a7230582017063f9f6e5c3345906cdcd2b4e3cdf70570b93fd97a25329c2f8617180018d86c6578706572696d656e74616cf50037",
  "source": "pragma solidity 0.5.3;\r\npragma experimental ABIEncoderV2;\r\n\r\n// import \"https://github.com/OpenZeppelin/openzeppelin-contracts/blob/solc-0.6/contracts/token/ERC20/IERC20.sol\";\r\n// import \"https://github.com/OpenZeppelin/openzeppelin-contracts/blob/solc-0.6/contracts/math/SafeMath.sol\";\r\nimport '../contracts/libraries/token/ERC20/ERC20.sol';\r\nimport '../contracts/libraries/math/SafeMath.sol';\r\nimport \"./IExc.sol\";\r\n\r\ncontract Exc is IExc{\r\n\r\n    using SafeMath for uint;\r\n       \r\n    mapping(bytes32 => Token) public tokens;\r\n    bytes32[] public tokenList;\r\n    mapping(address => mapping(bytes32 => uint)) public traderBalances;\r\n    mapping(bytes32 => mapping(uint => Order[])) public orderBook;\r\n    address public admin;\r\n    uint public nextOrderId;\r\n    uint public nextTradeId;\r\n    bytes32 constant PIN = bytes32('PIN');\r\n    \r\n    event NewTrade(\r\n        uint tradeId,\r\n        uint orderId,\r\n        bytes32 indexed ticker,\r\n        address indexed trader1,\r\n        address indexed trader2,\r\n        uint amount,\r\n        uint price,\r\n        uint date\r\n    );\r\n    \r\n    constructor() public {\r\n        admin = msg.sender;\r\n    }\r\n\r\n    function getOrders(\r\n      bytes32 ticker, \r\n      Side side) \r\n      external \r\n      view\r\n      returns(Order[] memory) {\r\n      return orderBook[ticker][uint(side)];\r\n    }\r\n\r\n    function getTokens() \r\n      external \r\n      view \r\n      returns(Token[] memory) {\r\n      Token[] memory _tokens = new Token[](tokenList.length);\r\n      for (uint i = 0; i < tokenList.length; i++) {\r\n        _tokens[i] = Token(\r\n          tokens[tokenList[i]].ticker,\r\n          tokens[tokenList[i]].tokenAddress\r\n        );\r\n      }\r\n      return _tokens;\r\n    }\r\n    \r\n    function addToken(\r\n        bytes32 ticker,\r\n        address tokenAddress)\r\n        external {\r\n        tokens[ticker] = Token(ticker, tokenAddress);\r\n        tokenList.push(ticker);\r\n    }\r\n    \r\n    function deposit(\r\n        uint amount,\r\n        bytes32 ticker)\r\n        tokenExists(ticker)\r\n        external {\r\n        IERC20(tokens[ticker].tokenAddress).transferFrom(\r\n            msg.sender,\r\n            address(this),\r\n            amount\r\n        );\r\n        traderBalances[msg.sender][ticker] = traderBalances[msg.sender][ticker].add(amount);\r\n    }\r\n    \r\n    function withdraw(\r\n        uint amount,\r\n        bytes32 ticker)\r\n        tokenExists(ticker)\r\n        external {\r\n        require(\r\n            traderBalances[msg.sender][ticker] >= amount,\r\n            'balance too low'\r\n        ); \r\n        traderBalances[msg.sender][ticker] = traderBalances[msg.sender][ticker].sub(amount);\r\n        IERC20(tokens[ticker].tokenAddress).transfer(msg.sender, amount);\r\n    }\r\n    \r\n    function makeLimitOrder(\r\n        bytes32 ticker,\r\n        uint amount,\r\n        uint price,\r\n        Side side)\r\n        tokenExists(ticker)\r\n        tokenIsNotPine(ticker)\r\n        external {\r\n        if(side == Side.SELL) {\r\n            require(\r\n                traderBalances[msg.sender][ticker] >= amount, \r\n                'token balance too low'\r\n            );\r\n        } else {\r\n            require(\r\n                traderBalances[msg.sender][PIN] >= amount.mul(price),\r\n                'pine balance too low'\r\n            );\r\n        }\r\n        Order[] storage orders = orderBook[ticker][uint(side)];\r\n        orders.push(Order(\r\n            nextOrderId,\r\n            msg.sender,\r\n            side,\r\n            ticker,\r\n            amount,\r\n            0,\r\n            price,\r\n            now \r\n        ));\r\n        \r\n        uint i = orders.length > 0 ? orders.length - 1 : 0;\r\n        while(i > 0) {\r\n            if(side == Side.BUY && orders[i - 1].price > orders[i].price) {\r\n                break;   \r\n            }\r\n            if(side == Side.SELL && orders[i - 1].price < orders[i].price) {\r\n                break;   \r\n            }\r\n            Order memory order = orders[i - 1];\r\n            orders[i - 1] = orders[i];\r\n            orders[i] = order;\r\n            i--;\r\n        }\r\n        nextOrderId++;\r\n    }\r\n    \r\n        function deleteLimitOrder(\r\n        uint id,\r\n        bytes32 ticker,\r\n        Side side) tokenExists(ticker)\r\n    external returns (bool) {\r\n        Order[] storage orders = orderBook[ticker][uint(side)];\r\n        uint i;\r\n        i = 0;\r\n        while(i < orders.length) {\r\n            if (orders[i].id == id && orders[i].trader == msg.sender) {\r\n                for(uint j = i; j < orders.length - 1; j++ ) {\r\n                orders[j] = orders[j + 1];\r\n            }\r\n            orders.pop();\r\n            return true;\r\n            }\r\n            i++;\r\n        }\r\n        return false;\r\n    }\r\n    \r\n    function makeMarketOrder(\r\n        bytes32 ticker,\r\n        uint amount,\r\n        Side side)\r\n        tokenExists(ticker)\r\n        tokenIsNotPine(ticker)\r\n        external {\r\n        if(side == Side.SELL) {\r\n            require(\r\n                traderBalances[msg.sender][ticker] >= amount, \r\n                'token balance too low'\r\n            );\r\n        }\r\n        Order[] storage orders = orderBook[ticker][uint(side == Side.BUY ? Side.SELL : Side.BUY)];\r\n        uint i;\r\n        uint remaining = amount;\r\n        \r\n        while(i < orders.length && remaining > 0) {\r\n            uint available = orders[i].amount.sub(orders[i].filled);\r\n            uint matched = (remaining > available) ? available : remaining;\r\n            remaining = remaining.sub(matched);\r\n            orders[i].filled = orders[i].filled.add(matched);\r\n            emit NewTrade(\r\n                nextTradeId,\r\n                orders[i].id,\r\n                ticker,\r\n                orders[i].trader,\r\n                msg.sender,\r\n                matched,\r\n                orders[i].price,\r\n                now\r\n            );\r\n            if(side == Side.SELL) {\r\n                traderBalances[msg.sender][ticker] = traderBalances[msg.sender][ticker].sub(matched);\r\n                traderBalances[msg.sender][PIN] = traderBalances[msg.sender][PIN].add(matched.mul(orders[i].price));\r\n                traderBalances[orders[i].trader][ticker] = traderBalances[orders[i].trader][ticker].add(matched);\r\n                traderBalances[orders[i].trader][PIN] = traderBalances[orders[i].trader][PIN].sub(matched.mul(orders[i].price));\r\n            }\r\n            if(side == Side.BUY) {\r\n                require(\r\n                    traderBalances[msg.sender][PIN] >= matched.mul(orders[i].price),\r\n                    'Pine balance too low'\r\n                );\r\n                traderBalances[msg.sender][ticker] = traderBalances[msg.sender][ticker].add(matched);\r\n                traderBalances[msg.sender][PIN] = traderBalances[msg.sender][PIN].sub(matched.mul(orders[i].price));\r\n                traderBalances[orders[i].trader][ticker] = traderBalances[orders[i].trader][ticker].sub(matched);\r\n                traderBalances[orders[i].trader][PIN] = traderBalances[orders[i].trader][PIN].add(matched.mul(orders[i].price));\r\n            }\r\n            nextTradeId++;\r\n            i++;\r\n        }\r\n        \r\n        i = 0;\r\n        while(i < orders.length && orders[i].filled == orders[i].amount) {\r\n            for(uint j = i; j < orders.length - 1; j++ ) {\r\n                orders[j] = orders[j + 1];\r\n            }\r\n            orders.pop();\r\n            i++;\r\n        }\r\n    }\r\n   \r\n    modifier tokenIsNotPine(bytes32 ticker) {\r\n       require(ticker != PIN, 'cannot trade Pine');\r\n       _;\r\n    }     \r\n    \r\n    modifier tokenExists(bytes32 ticker) {\r\n        require(\r\n            tokens[ticker].tokenAddress != address(0),\r\n            'this token does not exist'\r\n        );\r\n        _;\r\n    }\r\n    \r\n    modifier onlyAdmin() {\r\n        require(msg.sender == admin, 'only admin');\r\n        _;\r\n    }\r\n}",
  "sourcePath": "C:/Users/Steve/Desktop/Work/Brown/redwoodSolution/contracts/Exc.sol",
  "compiler": {
    "name": "solc",
    "version": "0.5.3+commit.10d17f24.Emscripten.clang"
  },
  "schemaVersion": "3.4.1",
  "updatedAt": "2021-07-12T20:27:59.224Z",
  "devdoc": {
    "methods": {}
  },
  "userdoc": {
    "methods": {}
  }
}