{
  "contractName": "Factory",
  "abi": [
    {
      "constant": true,
      "inputs": [
        {
          "name": "",
          "type": "uint256"
        }
      ],
      "name": "allPairs",
      "outputs": [
        {
          "name": "",
          "type": "address"
        }
      ],
      "payable": false,
      "stateMutability": "view",
      "type": "function"
    },
    {
      "constant": true,
      "inputs": [
        {
          "name": "",
          "type": "address"
        },
        {
          "name": "",
          "type": "address"
        }
      ],
      "name": "getPair",
      "outputs": [
        {
          "name": "",
          "type": "address"
        }
      ],
      "payable": false,
      "stateMutability": "view",
      "type": "function"
    },
    {
      "anonymous": false,
      "inputs": [
        {
          "indexed": true,
          "name": "token0",
          "type": "address"
        },
        {
          "indexed": true,
          "name": "token1",
          "type": "address"
        },
        {
          "indexed": false,
          "name": "pair",
          "type": "address"
        },
        {
          "indexed": false,
          "name": "",
          "type": "uint256"
        }
      ],
      "name": "PairCreated",
      "type": "event"
    },
    {
      "constant": false,
      "inputs": [
        {
          "name": "tokenA",
          "type": "address"
        },
        {
          "name": "tokenB",
          "type": "address"
        },
        {
          "name": "quoting",
          "type": "address"
        },
        {
          "name": "dex",
          "type": "address"
        },
        {
          "name": "tickerQ",
          "type": "bytes32"
        },
        {
          "name": "tickerT",
          "type": "bytes32"
        }
      ],
      "name": "createPair",
      "outputs": [
        {
          "name": "pair",
          "type": "address"
        }
      ],
      "payable": false,
      "stateMutability": "nonpayable",
      "type": "function"
    }
  ],
  "bytecode": "0x608060405234801561001057600080fd5b50611ba2806100206000396000f3fe608060405234801561001057600080fd5b506004361061005e576000357c0100000000000000000000000000000000000000000000000000000000900480631e3dd18b14610063578063bb35c43d146100d1578063e6a43905146101c9575b600080fd5b61008f6004803603602081101561007957600080fd5b810190808035906020019092919050505061026d565b604051808273ffffffffffffffffffffffffffffffffffffffff1673ffffffffffffffffffffffffffffffffffffffff16815260200191505060405180910390f35b610187600480360360c08110156100e757600080fd5b81019080803573ffffffffffffffffffffffffffffffffffffffff169060200190929190803573ffffffffffffffffffffffffffffffffffffffff169060200190929190803573ffffffffffffffffffffffffffffffffffffffff169060200190929190803573ffffffffffffffffffffffffffffffffffffffff16906020019092919080359060200190929190803590602001909291905050506102ab565b604051808273ffffffffffffffffffffffffffffffffffffffff1673ffffffffffffffffffffffffffffffffffffffff16815260200191505060405180910390f35b61022b600480360360408110156101df57600080fd5b81019080803573ffffffffffffffffffffffffffffffffffffffff169060200190929190803573ffffffffffffffffffffffffffffffffffffffff169060200190929190505050610ad3565b604051808273ffffffffffffffffffffffffffffffffffffffff1673ffffffffffffffffffffffffffffffffffffffff16815260200191505060405180910390f35b60018181548110151561027c57fe5b906000526020600020016000915054906101000a900473ffffffffffffffffffffffffffffffffffffffff1681565b60008473ffffffffffffffffffffffffffffffffffffffff168773ffffffffffffffffffffffffffffffffffffffff16141515610333576040517f08c379a0000000000000000000000000000000000000000000000000000000008152600401808060200182810382526026815260200180611b516026913960400191505060405180910390fd5b8573ffffffffffffffffffffffffffffffffffffffff168773ffffffffffffffffffffffffffffffffffffffff16141515156103d7576040517f08c379a00000000000000000000000000000000000000000000000000000000081526004018080602001828103825260138152602001807f4964656e746963616c206164647265737365730000000000000000000000000081525060200191505060405180910390fd5b6000808773ffffffffffffffffffffffffffffffffffffffff168973ffffffffffffffffffffffffffffffffffffffff1610610414578789610417565b88885b9150915060008873ffffffffffffffffffffffffffffffffffffffff168a73ffffffffffffffffffffffffffffffffffffffff161061045757600261045a565b60015b60ff169050600073ffffffffffffffffffffffffffffffffffffffff168373ffffffffffffffffffffffffffffffffffffffff1614151515610504576040517f08c379a00000000000000000000000000000000000000000000000000000000081526004018080602001828103825260128152602001807f5a65726f2061646472657373206572726f72000000000000000000000000000081525060200191505060405180910390fd5b600073ffffffffffffffffffffffffffffffffffffffff166000808573ffffffffffffffffffffffffffffffffffffffff1673ffffffffffffffffffffffffffffffffffffffff16815260200190815260200160002060008473ffffffffffffffffffffffffffffffffffffffff1673ffffffffffffffffffffffffffffffffffffffff16815260200190815260200160002060009054906101000a900473ffffffffffffffffffffffffffffffffffffffff1673ffffffffffffffffffffffffffffffffffffffff16141515610643576040517f08c379a00000000000000000000000000000000000000000000000000000000081526004018080602001828103825260138152602001807f5061697220616c7265616479206578697374730000000000000000000000000081525060200191505060405180910390fd5b60606040518060200161065590610b15565b60208201810382528060405250905060008484604051602001808373ffffffffffffffffffffffffffffffffffffffff1673ffffffffffffffffffffffffffffffffffffffff166c010000000000000000000000000281526014018273ffffffffffffffffffffffffffffffffffffffff1673ffffffffffffffffffffffffffffffffffffffff166c0100000000000000000000000002815260140192505050604051602081830303815290604052805190602001209050808251602084016000f595508573ffffffffffffffffffffffffffffffffffffffff16636ea47fad86868c878d8d6040518763ffffffff167c0100000000000000000000000000000000000000000000000000000000028152600401808773ffffffffffffffffffffffffffffffffffffffff1673ffffffffffffffffffffffffffffffffffffffff1681526020018673ffffffffffffffffffffffffffffffffffffffff1673ffffffffffffffffffffffffffffffffffffffff1681526020018573ffffffffffffffffffffffffffffffffffffffff1673ffffffffffffffffffffffffffffffffffffffff1681526020018481526020018381526020018281526020019650505050505050600060405180830381600087803b15801561083457600080fd5b505af1158015610848573d6000803e3d6000fd5b50505050856000808773ffffffffffffffffffffffffffffffffffffffff1673ffffffffffffffffffffffffffffffffffffffff16815260200190815260200160002060008673ffffffffffffffffffffffffffffffffffffffff1673ffffffffffffffffffffffffffffffffffffffff16815260200190815260200160002060006101000a81548173ffffffffffffffffffffffffffffffffffffffff021916908373ffffffffffffffffffffffffffffffffffffffff160217905550856000808673ffffffffffffffffffffffffffffffffffffffff1673ffffffffffffffffffffffffffffffffffffffff16815260200190815260200160002060008773ffffffffffffffffffffffffffffffffffffffff1673ffffffffffffffffffffffffffffffffffffffff16815260200190815260200160002060006101000a81548173ffffffffffffffffffffffffffffffffffffffff021916908373ffffffffffffffffffffffffffffffffffffffff16021790555060018690806001815401808255809150509060018203906000526020600020016000909192909190916101000a81548173ffffffffffffffffffffffffffffffffffffffff021916908373ffffffffffffffffffffffffffffffffffffffff160217905550508373ffffffffffffffffffffffffffffffffffffffff168573ffffffffffffffffffffffffffffffffffffffff167f0d3648bd0f6ba80134a33ba9275ac585d9d315f0ad8355cddefde31afa28d0e988600180549050604051808373ffffffffffffffffffffffffffffffffffffffff1673ffffffffffffffffffffffffffffffffffffffff1681526020018281526020019250505060405180910390a350505050509695505050505050565b60006020528160005260406000206020528060005260406000206000915091509054906101000a900473ffffffffffffffffffffffffffffffffffffffff1681565b61102e80610b238339019056fe608060405234801561001057600080fd5b5061100e806100206000396000f3fe608060405234801561001057600080fd5b50600436106100a5576000357c010000000000000000000000000000000000000000000000000000000090048063c45a015511610078578063c45a0155146101fe578063c9677fc514610248578063d21220a714610280578063ee95b8e0146102ca576100a5565b80631978a5ed146100aa578063692058c2146100f45780636ea47fad1461013e5780639a859ce5146101e0575b600080fd5b6100b26102e8565b604051808273ffffffffffffffffffffffffffffffffffffffff1673ffffffffffffffffffffffffffffffffffffffff16815260200191505060405180910390f35b6100fc61030e565b604051808273ffffffffffffffffffffffffffffffffffffffff1673ffffffffffffffffffffffffffffffffffffffff16815260200191505060405180910390f35b6101de600480360360c081101561015457600080fd5b81019080803573ffffffffffffffffffffffffffffffffffffffff169060200190929190803573ffffffffffffffffffffffffffffffffffffffff169060200190929190803573ffffffffffffffffffffffffffffffffffffffff169060200190929190803590602001909291908035906020019092919080359060200190929190505050610334565b005b6101e8610594565b6040518082815260200191505060405180910390f35b61020661059a565b604051808273ffffffffffffffffffffffffffffffffffffffff1673ffffffffffffffffffffffffffffffffffffffff16815260200191505060405180910390f35b61027e6004803603604081101561025e57600080fd5b8101908080359060200190929190803590602001909291905050506105bf565b005b610288610ce4565b604051808273ffffffffffffffffffffffffffffffffffffffff1673ffffffffffffffffffffffffffffffffffffffff16815260200191505060405180910390f35b6102d2610d0a565b6040518082815260200191505060405180910390f35b600160009054906101000a900473ffffffffffffffffffffffffffffffffffffffff1681565b600360009054906101000a900473ffffffffffffffffffffffffffffffffffffffff1681565b6000809054906101000a900473ffffffffffffffffffffffffffffffffffffffff1673ffffffffffffffffffffffffffffffffffffffff163373ffffffffffffffffffffffffffffffffffffffff161415156103db576040517f08c379a0000000000000000000000000000000000000000000000000000000008152600401808060200182810382526027815260200180610fbc6027913960400191505060405180910390fd5b60018314156104ba5785600160006101000a81548173ffffffffffffffffffffffffffffffffffffffff021916908373ffffffffffffffffffffffffffffffffffffffff16021790555084600260006101000a81548173ffffffffffffffffffffffffffffffffffffffff021916908373ffffffffffffffffffffffffffffffffffffffff16021790555083600360006101000a81548173ffffffffffffffffffffffffffffffffffffffff021916908373ffffffffffffffffffffffffffffffffffffffff160217905550816004819055508060058190555061058c565b85600260006101000a81548173ffffffffffffffffffffffffffffffffffffffff021916908373ffffffffffffffffffffffffffffffffffffffff16021790555084600160006101000a81548173ffffffffffffffffffffffffffffffffffffffff021916908373ffffffffffffffffffffffffffffffffffffffff16021790555083600360006101000a81548173ffffffffffffffffffffffffffffffffffffffff021916908373ffffffffffffffffffffffffffffffffffffffff16021790555081600481905550806005819055505b505050505050565b60045481565b6000809054906101000a900473ffffffffffffffffffffffffffffffffffffffff1681565b81600160009054906101000a900473ffffffffffffffffffffffffffffffffffffffff1673ffffffffffffffffffffffffffffffffffffffff166370a08231336040518263ffffffff167c0100000000000000000000000000000000000000000000000000000000028152600401808273ffffffffffffffffffffffffffffffffffffffff1673ffffffffffffffffffffffffffffffffffffffff16815260200191505060206040518083038186803b15801561067b57600080fd5b505afa15801561068f573d6000803e3d6000fd5b505050506040513d60208110156106a557600080fd5b81019080805190602001909291905050501015151561070f576040517f08c379a0000000000000000000000000000000000000000000000000000000008152600401808060200182810382526024815260200180610f986024913960400191505060405180910390fd5b80600260009054906101000a900473ffffffffffffffffffffffffffffffffffffffff1673ffffffffffffffffffffffffffffffffffffffff166370a08231336040518263ffffffff167c0100000000000000000000000000000000000000000000000000000000028152600401808273ffffffffffffffffffffffffffffffffffffffff1673ffffffffffffffffffffffffffffffffffffffff16815260200191505060206040518083038186803b1580156107cb57600080fd5b505afa1580156107df573d6000803e3d6000fd5b505050506040513d60208110156107f557600080fd5b81019080805190602001909291905050501015151561085f576040517f08c379a0000000000000000000000000000000000000000000000000000000008152600401808060200182810382526024815260200180610f346024913960400191505060405180910390fd5b600061086b8383610d10565b1415156108c3576040517f08c379a0000000000000000000000000000000000000000000000000000000008152600401808060200182810382526040815260200180610f586040913960400191505060405180910390fd5b600360009054906101000a900473ffffffffffffffffffffffffffffffffffffffff1673ffffffffffffffffffffffffffffffffffffffff1663c9630cb0836004546040518363ffffffff167c01000000000000000000000000000000000000000000000000000000000281526004018083815260200182815260200192505050600060405180830381600087803b15801561095e57600080fd5b505af1158015610972573d6000803e3d6000fd5b50505050600360009054906101000a900473ffffffffffffffffffffffffffffffffffffffff1673ffffffffffffffffffffffffffffffffffffffff1663c9630cb0826005546040518363ffffffff167c01000000000000000000000000000000000000000000000000000000000281526004018083815260200182815260200192505050600060405180830381600087803b158015610a1157600080fd5b505af1158015610a25573d6000803e3d6000fd5b50505050600360009054906101000a900473ffffffffffffffffffffffffffffffffffffffff1673ffffffffffffffffffffffffffffffffffffffff16639776aacf600554600260009054906101000a900473ffffffffffffffffffffffffffffffffffffffff166040518363ffffffff167c0100000000000000000000000000000000000000000000000000000000028152600401808381526020018273ffffffffffffffffffffffffffffffffffffffff1673ffffffffffffffffffffffffffffffffffffffff16815260200192505050600060405180830381600087803b158015610b1257600080fd5b505af1158015610b26573d6000803e3d6000fd5b50505050600360009054906101000a900473ffffffffffffffffffffffffffffffffffffffff1673ffffffffffffffffffffffffffffffffffffffff1663da28bd5c60055483610b768686610d5a565b60016040518563ffffffff167c010000000000000000000000000000000000000000000000000000000002815260040180858152602001848152602001838152602001826001811115610bc557fe5b60ff168152602001945050505050600060405180830381600087803b158015610bed57600080fd5b505af1158015610c01573d6000803e3d6000fd5b50505050600360009054906101000a900473ffffffffffffffffffffffffffffffffffffffff1673ffffffffffffffffffffffffffffffffffffffff1663da28bd5c60055484610c518686610d5a565b60006040518563ffffffff167c010000000000000000000000000000000000000000000000000000000002815260040180858152602001848152602001838152602001826001811115610ca057fe5b60ff168152602001945050505050600060405180830381600087803b158015610cc857600080fd5b505af1158015610cdc573d6000803e3d6000fd5b505050505050565b600260009054906101000a900473ffffffffffffffffffffffffffffffffffffffff1681565b60055481565b6000610d5283836040805190810160405280601881526020017f536166654d6174683a206d6f64756c6f206279207a65726f0000000000000000815250610da4565b905092915050565b6000610d9c83836040805190810160405280601a81526020017f536166654d6174683a206469766973696f6e206279207a65726f000000000000815250610e69565b905092915050565b60008083141582901515610e53576040517f08c379a00000000000000000000000000000000000000000000000000000000081526004018080602001828103825283818151815260200191508051906020019080838360005b83811015610e18578082015181840152602081019050610dfd565b50505050905090810190601f168015610e455780820380516001836020036101000a031916815260200191505b509250505060405180910390fd5b508284811515610e5f57fe5b0690509392505050565b600080831182901515610f17576040517f08c379a00000000000000000000000000000000000000000000000000000000081526004018080602001828103825283818151815260200191508051906020019080838360005b83811015610edc578082015181840152602081019050610ec1565b50505050905090810190601f168015610f095780820380516001836020036101000a031916815260200191505b509250505060405180910390fd5b5060008385811515610f2557fe5b04905080915050939250505056fe4e6f7420656e6f75676820746f6b656e2063757272656e637920696e206163636f756e74416d6f756e74206f6620746f6b656e2063757272656e637920616e642071756f74652063757272656e6379206d7573742062652070726f706f7274696f6e616c4e6f7420656e6f7567682071756f74652063757272656e637920696e206163636f756e744f6e6c7920666163746f727920636f6e74726163742063616e20637265617465206120706f6f6ca165627a7a723058208dbbab170c8ca06aa92027b206a82a8da158004ae3d4b1eade14c60b828caf170029466972737420746f6b656e20696e2070616972206973206e6f742071756f746520746f6b656ea165627a7a723058200cf4c772c2024612cff190dd369000e9937fd2d1b37031246b47522a5ce56ea70029",
  "source": "pragma solidity 0.5.3;\n\nimport './Pool.sol';\n\ncontract Factory {\n    \n    mapping(address => mapping(address => address)) public getPair;\n    address[] public allPairs;\n\n    event PairCreated(address indexed token0, address indexed token1, address pair, uint);\n    \n    function createPair(address tokenA, address tokenB, address quoting, address dex, bytes32 tickerQ, bytes32 tickerT) external returns (address pair) {\n        require(tokenA == quoting, 'First token in pair is not quote token');\n        require(tokenA != tokenB, 'Identical addresses');\n        (address token0, address token1) = tokenA < tokenB ? (tokenA, tokenB) : (tokenB, tokenA);\n        uint whichP = tokenA < tokenB ? 1 : 2;\n        require(token0 != address(0), 'Zero address error');\n        require(getPair[token0][token1] == address(0), 'Pair already exists');\n        bytes memory bytecode = type(Pool).creationCode;\n        bytes32 salt = keccak256(abi.encodePacked(token0, token1));\n        assembly {\n            pair := create2(0, add(bytecode, 32), mload(bytecode), salt)\n        }\n        Pool(pair).initialize(token0, token1, dex, whichP, tickerQ, tickerT);\n        getPair[token0][token1] = pair;\n        getPair[token1][token0] = pair;\n        allPairs.push(pair);\n        emit PairCreated(token0, token1, pair, allPairs.length);\n    }\n    \n}",
  "sourcePath": "C:/Users/Steve/Desktop/Work/Brown/redwoodSolution/contracts/Fac.sol",
  "compiler": {
    "name": "solc",
    "version": "0.5.3+commit.10d17f24.Emscripten.clang"
  },
  "schemaVersion": "3.4.1",
  "updatedAt": "2021-07-12T20:26:37.244Z",
  "devdoc": {
    "methods": {}
  },
  "userdoc": {
    "methods": {}
  }
}