{
  "contractName": "Pool",
  "abi": [
    {
      "constant": true,
      "inputs": [],
      "name": "tokenP",
      "outputs": [
        {
          "name": "",
          "type": "address"
        }
      ],
      "payable": false,
      "stateMutability": "view",
      "type": "function"
    },
    {
      "constant": true,
      "inputs": [],
      "name": "dex",
      "outputs": [
        {
          "name": "",
          "type": "address"
        }
      ],
      "payable": false,
      "stateMutability": "view",
      "type": "function"
    },
    {
      "constant": true,
      "inputs": [],
      "name": "tokenPT",
      "outputs": [
        {
          "name": "",
          "type": "bytes32"
        }
      ],
      "payable": false,
      "stateMutability": "view",
      "type": "function"
    },
    {
      "constant": true,
      "inputs": [],
      "name": "factory",
      "outputs": [
        {
          "name": "",
          "type": "address"
        }
      ],
      "payable": false,
      "stateMutability": "view",
      "type": "function"
    },
    {
      "constant": true,
      "inputs": [],
      "name": "token1",
      "outputs": [
        {
          "name": "",
          "type": "address"
        }
      ],
      "payable": false,
      "stateMutability": "view",
      "type": "function"
    },
    {
      "constant": true,
      "inputs": [],
      "name": "token1T",
      "outputs": [
        {
          "name": "",
          "type": "bytes32"
        }
      ],
      "payable": false,
      "stateMutability": "view",
      "type": "function"
    },
    {
      "constant": false,
      "inputs": [
        {
          "name": "_token0",
          "type": "address"
        },
        {
          "name": "_token1",
          "type": "address"
        },
        {
          "name": "_dex",
          "type": "address"
        },
        {
          "name": "whichP",
          "type": "uint256"
        },
        {
          "name": "_tickerQ",
          "type": "bytes32"
        },
        {
          "name": "_tickerT",
          "type": "bytes32"
        }
      ],
      "name": "initialize",
      "outputs": [],
      "payable": false,
      "stateMutability": "nonpayable",
      "type": "function"
    },
    {
      "constant": false,
      "inputs": [
        {
          "name": "pAmt",
          "type": "uint256"
        },
        {
          "name": "tAmt",
          "type": "uint256"
        }
      ],
      "name": "startTrades",
      "outputs": [],
      "payable": false,
      "stateMutability": "nonpayable",
      "type": "function"
    }
  ],
  "bytecode": "0x608060405234801561001057600080fd5b5061100e806100206000396000f3fe608060405234801561001057600080fd5b50600436106100a5576000357c010000000000000000000000000000000000000000000000000000000090048063c45a015511610078578063c45a0155146101fe578063c9677fc514610248578063d21220a714610280578063ee95b8e0146102ca576100a5565b80631978a5ed146100aa578063692058c2146100f45780636ea47fad1461013e5780639a859ce5146101e0575b600080fd5b6100b26102e8565b604051808273ffffffffffffffffffffffffffffffffffffffff1673ffffffffffffffffffffffffffffffffffffffff16815260200191505060405180910390f35b6100fc61030e565b604051808273ffffffffffffffffffffffffffffffffffffffff1673ffffffffffffffffffffffffffffffffffffffff16815260200191505060405180910390f35b6101de600480360360c081101561015457600080fd5b81019080803573ffffffffffffffffffffffffffffffffffffffff169060200190929190803573ffffffffffffffffffffffffffffffffffffffff169060200190929190803573ffffffffffffffffffffffffffffffffffffffff169060200190929190803590602001909291908035906020019092919080359060200190929190505050610334565b005b6101e8610594565b6040518082815260200191505060405180910390f35b61020661059a565b604051808273ffffffffffffffffffffffffffffffffffffffff1673ffffffffffffffffffffffffffffffffffffffff16815260200191505060405180910390f35b61027e6004803603604081101561025e57600080fd5b8101908080359060200190929190803590602001909291905050506105bf565b005b610288610ce4565b604051808273ffffffffffffffffffffffffffffffffffffffff1673ffffffffffffffffffffffffffffffffffffffff16815260200191505060405180910390f35b6102d2610d0a565b6040518082815260200191505060405180910390f35b600160009054906101000a900473ffffffffffffffffffffffffffffffffffffffff1681565b600360009054906101000a900473ffffffffffffffffffffffffffffffffffffffff1681565b6000809054906101000a900473ffffffffffffffffffffffffffffffffffffffff1673ffffffffffffffffffffffffffffffffffffffff163373ffffffffffffffffffffffffffffffffffffffff161415156103db576040517f08c379a0000000000000000000000000000000000000000000000000000000008152600401808060200182810382526027815260200180610fbc6027913960400191505060405180910390fd5b60018314156104ba5785600160006101000a81548173ffffffffffffffffffffffffffffffffffffffff021916908373ffffffffffffffffffffffffffffffffffffffff16021790555084600260006101000a81548173ffffffffffffffffffffffffffffffffffffffff021916908373ffffffffffffffffffffffffffffffffffffffff16021790555083600360006101000a81548173ffffffffffffffffffffffffffffffffffffffff021916908373ffffffffffffffffffffffffffffffffffffffff160217905550816004819055508060058190555061058c565b85600260006101000a81548173ffffffffffffffffffffffffffffffffffffffff021916908373ffffffffffffffffffffffffffffffffffffffff16021790555084600160006101000a81548173ffffffffffffffffffffffffffffffffffffffff021916908373ffffffffffffffffffffffffffffffffffffffff16021790555083600360006101000a81548173ffffffffffffffffffffffffffffffffffffffff021916908373ffffffffffffffffffffffffffffffffffffffff16021790555081600481905550806005819055505b505050505050565b60045481565b6000809054906101000a900473ffffffffffffffffffffffffffffffffffffffff1681565b81600160009054906101000a900473ffffffffffffffffffffffffffffffffffffffff1673ffffffffffffffffffffffffffffffffffffffff166370a08231336040518263ffffffff167c0100000000000000000000000000000000000000000000000000000000028152600401808273ffffffffffffffffffffffffffffffffffffffff1673ffffffffffffffffffffffffffffffffffffffff16815260200191505060206040518083038186803b15801561067b57600080fd5b505afa15801561068f573d6000803e3d6000fd5b505050506040513d60208110156106a557600080fd5b81019080805190602001909291905050501015151561070f576040517f08c379a0000000000000000000000000000000000000000000000000000000008152600401808060200182810382526024815260200180610f986024913960400191505060405180910390fd5b80600260009054906101000a900473ffffffffffffffffffffffffffffffffffffffff1673ffffffffffffffffffffffffffffffffffffffff166370a08231336040518263ffffffff167c0100000000000000000000000000000000000000000000000000000000028152600401808273ffffffffffffffffffffffffffffffffffffffff1673ffffffffffffffffffffffffffffffffffffffff16815260200191505060206040518083038186803b1580156107cb57600080fd5b505afa1580156107df573d6000803e3d6000fd5b505050506040513d60208110156107f557600080fd5b81019080805190602001909291905050501015151561085f576040517f08c379a0000000000000000000000000000000000000000000000000000000008152600401808060200182810382526024815260200180610f346024913960400191505060405180910390fd5b600061086b8383610d10565b1415156108c3576040517f08c379a0000000000000000000000000000000000000000000000000000000008152600401808060200182810382526040815260200180610f586040913960400191505060405180910390fd5b600360009054906101000a900473ffffffffffffffffffffffffffffffffffffffff1673ffffffffffffffffffffffffffffffffffffffff1663c9630cb0836004546040518363ffffffff167c01000000000000000000000000000000000000000000000000000000000281526004018083815260200182815260200192505050600060405180830381600087803b15801561095e57600080fd5b505af1158015610972573d6000803e3d6000fd5b50505050600360009054906101000a900473ffffffffffffffffffffffffffffffffffffffff1673ffffffffffffffffffffffffffffffffffffffff1663c9630cb0826005546040518363ffffffff167c01000000000000000000000000000000000000000000000000000000000281526004018083815260200182815260200192505050600060405180830381600087803b158015610a1157600080fd5b505af1158015610a25573d6000803e3d6000fd5b50505050600360009054906101000a900473ffffffffffffffffffffffffffffffffffffffff1673ffffffffffffffffffffffffffffffffffffffff16639776aacf600554600260009054906101000a900473ffffffffffffffffffffffffffffffffffffffff166040518363ffffffff167c0100000000000000000000000000000000000000000000000000000000028152600401808381526020018273ffffffffffffffffffffffffffffffffffffffff1673ffffffffffffffffffffffffffffffffffffffff16815260200192505050600060405180830381600087803b158015610b1257600080fd5b505af1158015610b26573d6000803e3d6000fd5b50505050600360009054906101000a900473ffffffffffffffffffffffffffffffffffffffff1673ffffffffffffffffffffffffffffffffffffffff1663da28bd5c60055483610b768686610d5a565b60016040518563ffffffff167c010000000000000000000000000000000000000000000000000000000002815260040180858152602001848152602001838152602001826001811115610bc557fe5b60ff168152602001945050505050600060405180830381600087803b158015610bed57600080fd5b505af1158015610c01573d6000803e3d6000fd5b50505050600360009054906101000a900473ffffffffffffffffffffffffffffffffffffffff1673ffffffffffffffffffffffffffffffffffffffff1663da28bd5c60055484610c518686610d5a565b60006040518563ffffffff167c010000000000000000000000000000000000000000000000000000000002815260040180858152602001848152602001838152602001826001811115610ca057fe5b60ff168152602001945050505050600060405180830381600087803b158015610cc857600080fd5b505af1158015610cdc573d6000803e3d6000fd5b505050505050565b600260009054906101000a900473ffffffffffffffffffffffffffffffffffffffff1681565b60055481565b6000610d5283836040805190810160405280601881526020017f536166654d6174683a206d6f64756c6f206279207a65726f0000000000000000815250610da4565b905092915050565b6000610d9c83836040805190810160405280601a81526020017f536166654d6174683a206469766973696f6e206279207a65726f000000000000815250610e69565b905092915050565b60008083141582901515610e53576040517f08c379a00000000000000000000000000000000000000000000000000000000081526004018080602001828103825283818151815260200191508051906020019080838360005b83811015610e18578082015181840152602081019050610dfd565b50505050905090810190601f168015610e455780820380516001836020036101000a031916815260200191505b509250505060405180910390fd5b508284811515610e5f57fe5b0690509392505050565b600080831182901515610f17576040517f08c379a00000000000000000000000000000000000000000000000000000000081526004018080602001828103825283818151815260200191508051906020019080838360005b83811015610edc578082015181840152602081019050610ec1565b50505050905090810190601f168015610f095780820380516001836020036101000a031916815260200191505b509250505060405180910390fd5b5060008385811515610f2557fe5b04905080915050939250505056fe4e6f7420656e6f75676820746f6b656e2063757272656e637920696e206163636f756e74416d6f756e74206f6620746f6b656e2063757272656e637920616e642071756f74652063757272656e6379206d7573742062652070726f706f7274696f6e616c4e6f7420656e6f7567682071756f74652063757272656e637920696e206163636f756e744f6e6c7920666163746f727920636f6e74726163742063616e20637265617465206120706f6f6ca165627a7a723058208dbbab170c8ca06aa92027b206a82a8da158004ae3d4b1eade14c60b828caf170029",
  "source": "pragma solidity 0.5.3;\n\nimport './Exc.sol';\n// import \"https://github.com/OpenZeppelin/openzeppelin-contracts/blob/solc-0.6/contracts/math/SafeMath.sol\";\nimport '../contracts/libraries/math/SafeMath.sol';\n\ncontract Pool {\n    address public factory;\n    address public tokenP;\n    address public token1;\n    address public dex;\n    bytes32 public tokenPT;\n    bytes32 public token1T;\n    \n\n    \n    function initialize(address _token0, address _token1, address _dex, uint whichP, bytes32 _tickerQ, bytes32 _tickerT) external {\n        require(msg.sender == factory, 'Only factory contract can create a pool');\n        if (whichP == 1) {\n            tokenP = _token0;\n            token1 = _token1;\n            dex = _dex;\n            tokenPT = _tickerQ;\n            token1T = _tickerT;\n        } else {\n            token1 = _token0;\n            tokenP = _token1;\n            dex = _dex;\n            tokenPT = _tickerQ;\n            token1T = _tickerT;\n        }\n    }\n    \n    function startTrades(uint pAmt, uint tAmt) external {\n         require(IERC20(tokenP).balanceOf(msg.sender) >= pAmt, 'Not enough quote currency in account');\n         require(IERC20(token1).balanceOf(msg.sender) >= tAmt, 'Not enough token currency in account');\n         require(SafeMath.mod(pAmt, tAmt) == 0, 'Amount of token currency and quote currency must be proportional');\n         IExc(dex).deposit(pAmt, tokenPT);\n         IExc(dex).deposit(tAmt, token1T);\n         IExc(dex).addToken(token1T, token1);\n         IExc(dex).makeLimitOrder(token1T, tAmt, SafeMath.div(pAmt, tAmt), IExc.Side.SELL);\n         IExc(dex).makeLimitOrder(token1T, pAmt, SafeMath.div(pAmt, tAmt), IExc.Side.BUY);\n    }\n    \n    // function depositPool(uint amt) {\n        \n    // }\n}",
  "sourcePath": "C:/Users/Steve/Desktop/Work/Brown/redwoodSolution/contracts/Pool.sol",
  "compiler": {
    "name": "solc",
    "version": "0.5.3+commit.10d17f24.Emscripten.clang"
  },
  "schemaVersion": "3.4.1",
  "updatedAt": "2021-07-12T20:27:59.245Z",
  "devdoc": {
    "methods": {}
  },
  "userdoc": {
    "methods": {}
  }
}